{
  "contractName": "Contacts",
  "abi": [
    {
      "inputs": [
        {
          "internalType": "uint256",
          "name": "",
          "type": "uint256"
        }
      ],
      "name": "contacts",
      "outputs": [
        {
          "internalType": "uint256",
          "name": "id",
          "type": "uint256"
        },
        {
          "internalType": "string",
          "name": "name",
          "type": "string"
        },
        {
          "internalType": "string",
          "name": "phone",
          "type": "string"
        }
      ],
      "stateMutability": "view",
      "type": "function",
      "constant": true
    },
    {
      "inputs": [],
      "name": "count",
      "outputs": [
        {
          "internalType": "uint256",
          "name": "",
          "type": "uint256"
        }
      ],
      "stateMutability": "view",
      "type": "function",
      "constant": true
    },
    {
      "inputs": [
        {
          "internalType": "string",
          "name": "_name",
          "type": "string"
        },
        {
          "internalType": "string",
          "name": "_phone",
          "type": "string"
        }
      ],
      "name": "createContact",
      "outputs": [],
      "stateMutability": "nonpayable",
      "type": "function"
    },
    {
      "inputs": [],
      "name": "getAllContacts",
      "outputs": [
        {
          "components": [
            {
              "internalType": "uint256",
              "name": "id",
              "type": "uint256"
            },
            {
              "internalType": "string",
              "name": "name",
              "type": "string"
            },
            {
              "internalType": "string",
              "name": "phone",
              "type": "string"
            }
          ],
          "internalType": "struct Contacts.Contact[]",
          "name": "",
          "type": "tuple[]"
        }
      ],
      "stateMutability": "view",
      "type": "function",
      "constant": true
    }
  ],
  "bytecode": "0x60806040526000805534801561001457600080fd5b50610d62806100246000396000f3fe608060405234801561001057600080fd5b506004361061004c5760003560e01c806306661abd146100515780633dce49201461006f578063e0f478cb1461008b578063ef1d6ddd146100bd575b600080fd5b6100596100db565b60405161006691906104d6565b60405180910390f35b6100896004803603810190610084919061064b565b6100e1565b005b6100a560048036038101906100a091906106ef565b610166565b6040516100b49392919061079b565b60405180910390f35b6100c56102a0565b6040516100d29190610952565b60405180910390f35b60005481565b6000808154809291906100f3906109a3565b9190505550604051806060016040528060005481526020018381526020018281525060016000805481526020019081526020016000206000820151816000015560208201518160010190816101489190610bf7565b50604082015181600201908161015e9190610bf7565b509050505050565b600160205280600052604060002060009150905080600001549080600101805461018f90610a1a565b80601f01602080910402602001604051908101604052809291908181526020018280546101bb90610a1a565b80156102085780601f106101dd57610100808354040283529160200191610208565b820191906000526020600020905b8154815290600101906020018083116101eb57829003601f168201915b50505050509080600201805461021d90610a1a565b80601f016020809104026020016040519081016040528092919081815260200182805461024990610a1a565b80156102965780601f1061026b57610100808354040283529160200191610296565b820191906000526020600020905b81548152906001019060200180831161027957829003601f168201915b5050505050905083565b60606000805467ffffffffffffffff8111156102bf576102be610520565b5b6040519080825280602002602001820160405280156102f857816020015b6102e561049c565b8152602001906001900390816102dd5790505b5090506000600190505b600054811161049457600160008281526020019081526020016000206040518060600160405290816000820154815260200160018201805461034390610a1a565b80601f016020809104026020016040519081016040528092919081815260200182805461036f90610a1a565b80156103bc5780601f10610391576101008083540402835291602001916103bc565b820191906000526020600020905b81548152906001019060200180831161039f57829003601f168201915b505050505081526020016002820180546103d590610a1a565b80601f016020809104026020016040519081016040528092919081815260200182805461040190610a1a565b801561044e5780601f106104235761010080835404028352916020019161044e565b820191906000526020600020905b81548152906001019060200180831161043157829003601f168201915b505050505081525050826001836104659190610cc9565b8151811061047657610475610cfd565b5b6020026020010181905250808061048c906109a3565b915050610302565b508091505090565b60405180606001604052806000815260200160608152602001606081525090565b6000819050919050565b6104d0816104bd565b82525050565b60006020820190506104eb60008301846104c7565b92915050565b6000604051905090565b600080fd5b600080fd5b600080fd5b600080fd5b6000601f19601f8301169050919050565b7f4e487b7100000000000000000000000000000000000000000000000000000000600052604160045260246000fd5b6105588261050f565b810181811067ffffffffffffffff8211171561057757610576610520565b5b80604052505050565b600061058a6104f1565b9050610596828261054f565b919050565b600067ffffffffffffffff8211156105b6576105b5610520565b5b6105bf8261050f565b9050602081019050919050565b82818337600083830152505050565b60006105ee6105e98461059b565b610580565b90508281526020810184848401111561060a5761060961050a565b5b6106158482856105cc565b509392505050565b600082601f83011261063257610631610505565b5b81356106428482602086016105db565b91505092915050565b60008060408385031215610662576106616104fb565b5b600083013567ffffffffffffffff8111156106805761067f610500565b5b61068c8582860161061d565b925050602083013567ffffffffffffffff8111156106ad576106ac610500565b5b6106b98582860161061d565b9150509250929050565b6106cc816104bd565b81146106d757600080fd5b50565b6000813590506106e9816106c3565b92915050565b600060208284031215610705576107046104fb565b5b6000610713848285016106da565b91505092915050565b600081519050919050565b600082825260208201905092915050565b60005b8381101561075657808201518184015260208101905061073b565b60008484015250505050565b600061076d8261071c565b6107778185610727565b9350610787818560208601610738565b6107908161050f565b840191505092915050565b60006060820190506107b060008301866104c7565b81810360208301526107c28185610762565b905081810360408301526107d68184610762565b9050949350505050565b600081519050919050565b600082825260208201905092915050565b6000819050602082019050919050565b610815816104bd565b82525050565b600082825260208201905092915050565b60006108378261071c565b610841818561081b565b9350610851818560208601610738565b61085a8161050f565b840191505092915050565b600060608301600083015161087d600086018261080c565b5060208301518482036020860152610895828261082c565b915050604083015184820360408601526108af828261082c565b9150508091505092915050565b60006108c88383610865565b905092915050565b6000602082019050919050565b60006108e8826107e0565b6108f281856107eb565b935083602082028501610904856107fc565b8060005b85811015610940578484038952815161092185826108bc565b945061092c836108d0565b925060208a01995050600181019050610908565b50829750879550505050505092915050565b6000602082019050818103600083015261096c81846108dd565b905092915050565b7f4e487b7100000000000000000000000000000000000000000000000000000000600052601160045260246000fd5b60006109ae826104bd565b91507fffffffffffffffffffffffffffffffffffffffffffffffffffffffffffffffff82036109e0576109df610974565b5b600182019050919050565b7f4e487b7100000000000000000000000000000000000000000000000000000000600052602260045260246000fd5b60006002820490506001821680610a3257607f821691505b602082108103610a4557610a446109eb565b5b50919050565b60008190508160005260206000209050919050565b60006020601f8301049050919050565b600082821b905092915050565b600060088302610aad7fffffffffffffffffffffffffffffffffffffffffffffffffffffffffffffffff82610a70565b610ab78683610a70565b95508019841693508086168417925050509392505050565b6000819050919050565b6000610af4610aef610aea846104bd565b610acf565b6104bd565b9050919050565b6000819050919050565b610b0e83610ad9565b610b22610b1a82610afb565b848454610a7d565b825550505050565b600090565b610b37610b2a565b610b42818484610b05565b505050565b5b81811015610b6657610b5b600082610b2f565b600181019050610b48565b5050565b601f821115610bab57610b7c81610a4b565b610b8584610a60565b81016020851015610b94578190505b610ba8610ba085610a60565b830182610b47565b50505b505050565b600082821c905092915050565b6000610bce60001984600802610bb0565b1980831691505092915050565b6000610be78383610bbd565b9150826002028217905092915050565b610c008261071c565b67ffffffffffffffff811115610c1957610c18610520565b5b610c238254610a1a565b610c2e828285610b6a565b600060209050601f831160018114610c615760008415610c4f578287015190505b610c598582610bdb565b865550610cc1565b601f198416610c6f86610a4b565b60005b82811015610c9757848901518255600182019150602085019450602081019050610c72565b86831015610cb45784890151610cb0601f891682610bbd565b8355505b6001600288020188555050505b505050505050565b6000610cd4826104bd565b9150610cdf836104bd565b9250828203905081811115610cf757610cf6610974565b5b92915050565b7f4e487b7100000000000000000000000000000000000000000000000000000000600052603260045260246000fdfea2646970667358221220b5ccbce80d841ebe0b824746d8a8c66ef4401e472c8536455185459851ba638e64736f6c63430008130033",
  "immutableReferences": {},
  "source": "// SPDX-License-Identifier: MIT\npragma solidity ^0.8.19;\n\ncontract Contacts {\n    uint public count = 0; // state variable\n\n    struct Contact {\n        uint id;\n        string name;\n        string phone;\n    }\n\n    mapping(uint => Contact) public contacts;\n\n    function createContact(string memory _name, string memory _phone) public {\n        count++;\n        contacts[count] = Contact(count, _name, _phone);\n    }\n\n    function getAllContacts() public view returns (Contact[] memory) {\n        Contact[] memory allContacts = new Contact[](count);\n        for (uint i = 1; i <= count; i++) {\n            allContacts[i - 1] = contacts[i];\n        }\n        return allContacts;\n    }\n}\n",
  "sourcePath": "/home/steve/Projects/vcis_wallet_blockchain/contracts/Contacts.sol",
  "compiler": {
    "name": "solc",
    "version": "0.8.19+commit.7dd6d404.Emscripten.clang"
  },
  "schemaVersion": "3.4.16",
  "updatedAt": "2024-04-10T07:48:24.520Z",
  "networkType": "ethereum",
  "devdoc": {
    "kind": "dev",
    "methods": {},
    "version": 1
  },
  "userdoc": {
    "kind": "user",
    "methods": {},
    "version": 1
  }
}